{
  "address": "0x9bE5A135eeBDB64C5CDd46876557dd6c2eac2E8B",
  "abi": [
    {
      "inputs": [
        {
          "internalType": "address",
          "name": "vrfCoordinator",
          "type": "address"
        },
        {
          "internalType": "bytes32",
          "name": "keyHash",
          "type": "bytes32"
        },
        {
          "internalType": "uint32",
          "name": "callbackGasLimit",
          "type": "uint32"
        },
        {
          "internalType": "uint64",
          "name": "subscriptionId",
          "type": "uint64"
        },
        {
          "internalType": "string[4]",
          "name": "tokenURIs",
          "type": "string[4]"
        },
        {
          "internalType": "uint256",
          "name": "mintFee",
          "type": "uint256"
        }
      ],
      "stateMutability": "nonpayable",
      "type": "constructor"
    },
    {
      "inputs": [
        {
          "internalType": "address",
          "name": "have",
          "type": "address"
        },
        {
          "internalType": "address",
          "name": "want",
          "type": "address"
        }
      ],
      "name": "OnlyCoordinatorCanFulfill",
      "type": "error"
    },
    {
      "inputs": [],
      "name": "RandomApeYachtClub__BreedNotFound",
      "type": "error"
    },
    {
      "inputs": [],
      "name": "RandomApeYachtClub__NotAbleToWithdraw",
      "type": "error"
    },
    {
      "inputs": [],
      "name": "RandomApeYachtClub__NotEnoughFeeToMint",
      "type": "error"
    },
    {
      "inputs": [],
      "name": "RandomApeYachtClub__NotOwner",
      "type": "error"
    },
    {
      "anonymous": false,
      "inputs": [
        {
          "indexed": true,
          "internalType": "address",
          "name": "owner",
          "type": "address"
        },
        {
          "indexed": true,
          "internalType": "address",
          "name": "approved",
          "type": "address"
        },
        {
          "indexed": true,
          "internalType": "uint256",
          "name": "tokenId",
          "type": "uint256"
        }
      ],
      "name": "Approval",
      "type": "event"
    },
    {
      "anonymous": false,
      "inputs": [
        {
          "indexed": true,
          "internalType": "address",
          "name": "owner",
          "type": "address"
        },
        {
          "indexed": true,
          "internalType": "address",
          "name": "operator",
          "type": "address"
        },
        {
          "indexed": false,
          "internalType": "bool",
          "name": "approved",
          "type": "bool"
        }
      ],
      "name": "ApprovalForAll",
      "type": "event"
    },
    {
      "anonymous": false,
      "inputs": [
        {
          "indexed": false,
          "internalType": "uint256",
          "name": "requestId",
          "type": "uint256"
        },
        {
          "indexed": false,
          "internalType": "uint256",
          "name": "tokenId",
          "type": "uint256"
        },
        {
          "indexed": false,
          "internalType": "enum RandomApeYachtClub.ApeBreed",
          "name": "breed",
          "type": "uint8"
        },
        {
          "indexed": false,
          "internalType": "address",
          "name": "minter",
          "type": "address"
        }
      ],
      "name": "NFTMinted",
      "type": "event"
    },
    {
      "anonymous": false,
      "inputs": [
        {
          "indexed": false,
          "internalType": "uint256",
          "name": "requestId",
          "type": "uint256"
        },
        {
          "indexed": false,
          "internalType": "address",
          "name": "sender",
          "type": "address"
        }
      ],
      "name": "NFTRequested",
      "type": "event"
    },
    {
      "anonymous": false,
      "inputs": [
        {
          "indexed": true,
          "internalType": "address",
          "name": "from",
          "type": "address"
        },
        {
          "indexed": true,
          "internalType": "address",
          "name": "to",
          "type": "address"
        },
        {
          "indexed": true,
          "internalType": "uint256",
          "name": "tokenId",
          "type": "uint256"
        }
      ],
      "name": "Transfer",
      "type": "event"
    },
    {
      "inputs": [
        {
          "internalType": "address",
          "name": "to",
          "type": "address"
        },
        {
          "internalType": "uint256",
          "name": "tokenId",
          "type": "uint256"
        }
      ],
      "name": "approve",
      "outputs": [],
      "stateMutability": "nonpayable",
      "type": "function"
    },
    {
      "inputs": [
        {
          "internalType": "address",
          "name": "owner",
          "type": "address"
        }
      ],
      "name": "balanceOf",
      "outputs": [
        {
          "internalType": "uint256",
          "name": "",
          "type": "uint256"
        }
      ],
      "stateMutability": "view",
      "type": "function"
    },
    {
      "inputs": [
        {
          "internalType": "uint256",
          "name": "randomNumber",
          "type": "uint256"
        }
      ],
      "name": "getApeFromNumber",
      "outputs": [
        {
          "internalType": "enum RandomApeYachtClub.ApeBreed",
          "name": "",
          "type": "uint8"
        }
      ],
      "stateMutability": "pure",
      "type": "function"
    },
    {
      "inputs": [
        {
          "internalType": "uint256",
          "name": "tokenId",
          "type": "uint256"
        }
      ],
      "name": "getApproved",
      "outputs": [
        {
          "internalType": "address",
          "name": "",
          "type": "address"
        }
      ],
      "stateMutability": "view",
      "type": "function"
    },
    {
      "inputs": [],
      "name": "getMaxRarity",
      "outputs": [
        {
          "internalType": "uint256",
          "name": "",
          "type": "uint256"
        }
      ],
      "stateMutability": "pure",
      "type": "function"
    },
    {
      "inputs": [],
      "name": "getMintFee",
      "outputs": [
        {
          "internalType": "uint256",
          "name": "",
          "type": "uint256"
        }
      ],
      "stateMutability": "view",
      "type": "function"
    },
    {
      "inputs": [],
      "name": "getTokenURIs",
      "outputs": [
        {
          "internalType": "string[4]",
          "name": "",
          "type": "string[4]"
        }
      ],
      "stateMutability": "view",
      "type": "function"
    },
    {
      "inputs": [
        {
          "internalType": "address",
          "name": "owner",
          "type": "address"
        },
        {
          "internalType": "address",
          "name": "operator",
          "type": "address"
        }
      ],
      "name": "isApprovedForAll",
      "outputs": [
        {
          "internalType": "bool",
          "name": "",
          "type": "bool"
        }
      ],
      "stateMutability": "view",
      "type": "function"
    },
    {
      "inputs": [],
      "name": "mintNft",
      "outputs": [
        {
          "internalType": "uint256",
          "name": "requestId",
          "type": "uint256"
        }
      ],
      "stateMutability": "payable",
      "type": "function"
    },
    {
      "inputs": [],
      "name": "name",
      "outputs": [
        {
          "internalType": "string",
          "name": "",
          "type": "string"
        }
      ],
      "stateMutability": "view",
      "type": "function"
    },
    {
      "inputs": [
        {
          "internalType": "uint256",
          "name": "tokenId",
          "type": "uint256"
        }
      ],
      "name": "ownerOf",
      "outputs": [
        {
          "internalType": "address",
          "name": "",
          "type": "address"
        }
      ],
      "stateMutability": "view",
      "type": "function"
    },
    {
      "inputs": [
        {
          "internalType": "uint256",
          "name": "requestId",
          "type": "uint256"
        },
        {
          "internalType": "uint256[]",
          "name": "randomWords",
          "type": "uint256[]"
        }
      ],
      "name": "rawFulfillRandomWords",
      "outputs": [],
      "stateMutability": "nonpayable",
      "type": "function"
    },
    {
      "inputs": [
        {
          "internalType": "address",
          "name": "from",
          "type": "address"
        },
        {
          "internalType": "address",
          "name": "to",
          "type": "address"
        },
        {
          "internalType": "uint256",
          "name": "tokenId",
          "type": "uint256"
        }
      ],
      "name": "safeTransferFrom",
      "outputs": [],
      "stateMutability": "nonpayable",
      "type": "function"
    },
    {
      "inputs": [
        {
          "internalType": "address",
          "name": "from",
          "type": "address"
        },
        {
          "internalType": "address",
          "name": "to",
          "type": "address"
        },
        {
          "internalType": "uint256",
          "name": "tokenId",
          "type": "uint256"
        },
        {
          "internalType": "bytes",
          "name": "data",
          "type": "bytes"
        }
      ],
      "name": "safeTransferFrom",
      "outputs": [],
      "stateMutability": "nonpayable",
      "type": "function"
    },
    {
      "inputs": [
        {
          "internalType": "address",
          "name": "operator",
          "type": "address"
        },
        {
          "internalType": "bool",
          "name": "approved",
          "type": "bool"
        }
      ],
      "name": "setApprovalForAll",
      "outputs": [],
      "stateMutability": "nonpayable",
      "type": "function"
    },
    {
      "inputs": [
        {
          "internalType": "bytes4",
          "name": "interfaceId",
          "type": "bytes4"
        }
      ],
      "name": "supportsInterface",
      "outputs": [
        {
          "internalType": "bool",
          "name": "",
          "type": "bool"
        }
      ],
      "stateMutability": "view",
      "type": "function"
    },
    {
      "inputs": [],
      "name": "symbol",
      "outputs": [
        {
          "internalType": "string",
          "name": "",
          "type": "string"
        }
      ],
      "stateMutability": "view",
      "type": "function"
    },
    {
      "inputs": [
        {
          "internalType": "uint256",
          "name": "tokenId",
          "type": "uint256"
        }
      ],
      "name": "tokenURI",
      "outputs": [
        {
          "internalType": "string",
          "name": "",
          "type": "string"
        }
      ],
      "stateMutability": "view",
      "type": "function"
    },
    {
      "inputs": [
        {
          "internalType": "address",
          "name": "from",
          "type": "address"
        },
        {
          "internalType": "address",
          "name": "to",
          "type": "address"
        },
        {
          "internalType": "uint256",
          "name": "tokenId",
          "type": "uint256"
        }
      ],
      "name": "transferFrom",
      "outputs": [],
      "stateMutability": "nonpayable",
      "type": "function"
    },
    {
      "inputs": [],
      "name": "withdraw",
      "outputs": [],
      "stateMutability": "nonpayable",
      "type": "function"
    }
  ],
  "transactionHash": "0x0c3dc1d07324fd2244b1278838ef71db3001db79ae78e157cf543f77f58507bf",
  "args": [
    "0x6168499c0cFfCaCD319c818142124B7A15E857ab",
    "0xd89b2bf150e3b9e13446986e571fb9cab24b13cea0a43ea20a6049a85cc807cc",
    100000,
    7761,
    [
      "",
      "",
      "",
      ""
    ],
    "100000000000000000"
  ],
  "numDeployments": 1,
  "solcInputHash": "c58c93cc64b6f36e0dedbc384c0fe46c",
  "bytecode": "0x6101606040523480156200001257600080fd5b5060405162004068380380620040688339818101604052810190620000389190620006bc565b856040518060400160405280601281526020017f52616e646f6d4170655961636874436c756200000000000000000000000000008152506040518060400160405280600481526020017f52415943000000000000000000000000000000000000000000000000000000008152508160009081620000b69190620009b8565b508060019081620000c89190620009b8565b5050508073ffffffffffffffffffffffffffffffffffffffff1660808173ffffffffffffffffffffffffffffffffffffffff1681525050503373ffffffffffffffffffffffffffffffffffffffff166101408173ffffffffffffffffffffffffffffffffffffffff16815250508573ffffffffffffffffffffffffffffffffffffffff1660a08173ffffffffffffffffffffffffffffffffffffffff16815250508573ffffffffffffffffffffffffffffffffffffffff1660c08173ffffffffffffffffffffffffffffffffffffffff16815250508460e081815250508363ffffffff166101008163ffffffff16815250508267ffffffffffffffff166101208167ffffffffffffffff1681525050816009906004620001ea929190620001fe565b5080600e8190555050505050505062000a9f565b82600481019282156200023e579160200282015b828111156200023d5782518290816200022c9190620009b8565b509160200191906001019062000212565b5b5090506200024d919062000251565b5090565b5b808211156200027557600081816200026b919062000279565b5060010162000252565b5090565b5080546200028790620007b1565b6000825580601f106200029b5750620002bc565b601f016020900490600052602060002090810190620002bb9190620002bf565b5b50565b5b80821115620002da576000816000905550600101620002c0565b5090565b6000604051905090565b600080fd5b600080fd5b600073ffffffffffffffffffffffffffffffffffffffff82169050919050565b60006200031f82620002f2565b9050919050565b620003318162000312565b81146200033d57600080fd5b50565b600081519050620003518162000326565b92915050565b6000819050919050565b6200036c8162000357565b81146200037857600080fd5b50565b6000815190506200038c8162000361565b92915050565b600063ffffffff82169050919050565b620003ad8162000392565b8114620003b957600080fd5b50565b600081519050620003cd81620003a2565b92915050565b600067ffffffffffffffff82169050919050565b620003f281620003d3565b8114620003fe57600080fd5b50565b6000815190506200041281620003e7565b92915050565b600080fd5b6000601f19601f8301169050919050565b7f4e487b7100000000000000000000000000000000000000000000000000000000600052604160045260246000fd5b62000468826200041d565b810181811067ffffffffffffffff821117156200048a57620004896200042e565b5b80604052505050565b60006200049f620002de565b9050620004ad82826200045d565b919050565b600067ffffffffffffffff821115620004d057620004cf6200042e565b5b602082029050919050565b600080fd5b600080fd5b600067ffffffffffffffff8211156200050357620005026200042e565b5b6200050e826200041d565b9050602081019050919050565b60005b838110156200053b5780820151818401526020810190506200051e565b60008484015250505050565b60006200055e6200055884620004e5565b62000493565b9050828152602081018484840111156200057d576200057c620004e0565b5b6200058a8482856200051b565b509392505050565b600082601f830112620005aa57620005a962000418565b5b8151620005bc84826020860162000547565b91505092915050565b6000620005dc620005d684620004b2565b62000493565b90508060208402830185811115620005f957620005f8620004db565b5b835b818110156200064757805167ffffffffffffffff81111562000622576200062162000418565b5b80860162000631898262000592565b85526020850194505050602081019050620005fb565b5050509392505050565b600082601f83011262000669576200066862000418565b5b600462000678848285620005c5565b91505092915050565b6000819050919050565b620006968162000681565b8114620006a257600080fd5b50565b600081519050620006b6816200068b565b92915050565b60008060008060008060c08789031215620006dc57620006db620002e8565b5b6000620006ec89828a0162000340565b9650506020620006ff89828a016200037b565b95505060406200071289828a01620003bc565b94505060606200072589828a0162000401565b935050608087015167ffffffffffffffff811115620007495762000748620002ed565b5b6200075789828a0162000651565b92505060a06200076a89828a01620006a5565b9150509295509295509295565b600081519050919050565b7f4e487b7100000000000000000000000000000000000000000000000000000000600052602260045260246000fd5b60006002820490506001821680620007ca57607f821691505b602082108103620007e057620007df62000782565b5b50919050565b60008190508160005260206000209050919050565b60006020601f8301049050919050565b600082821b905092915050565b6000600883026200084a7fffffffffffffffffffffffffffffffffffffffffffffffffffffffffffffffff826200080b565b6200085686836200080b565b95508019841693508086168417925050509392505050565b6000819050919050565b600062000899620008936200088d8462000681565b6200086e565b62000681565b9050919050565b6000819050919050565b620008b58362000878565b620008cd620008c482620008a0565b84845462000818565b825550505050565b600090565b620008e4620008d5565b620008f1818484620008aa565b505050565b5b8181101562000919576200090d600082620008da565b600181019050620008f7565b5050565b601f82111562000968576200093281620007e6565b6200093d84620007fb565b810160208510156200094d578190505b620009656200095c85620007fb565b830182620008f6565b50505b505050565b600082821c905092915050565b60006200098d600019846008026200096d565b1980831691505092915050565b6000620009a883836200097a565b9150826002028217905092915050565b620009c38262000777565b67ffffffffffffffff811115620009df57620009de6200042e565b5b620009eb8254620007b1565b620009f88282856200091d565b600060209050601f83116001811462000a30576000841562000a1b578287015190505b62000a2785826200099a565b86555062000a97565b601f19841662000a4086620007e6565b60005b8281101562000a6a5784890151825560018201915060208501945060208101905062000a43565b8683101562000a8a578489015162000a86601f8916826200097a565b8355505b6001600288020188555050505b505050505050565b60805160a05160c05160e05161010051610120516101405161356362000b05600039600081816108e5015261095a01526000610e2301526000610e4601526000610e020152600050506000610dc60152600081816107a401526107f801526135636000f3fe60806040526004361061011f5760003560e01c806370a08231116100a0578063b88d4fde11610064578063b88d4fde146103d3578063c2229fea146103fc578063c76d68391461041a578063c87b56dd14610457578063e985e9c5146104945761011f565b806370a08231146102ec5780637a5caab31461032957806395d89b4114610354578063a22cb4651461037f578063b6d3564b146103a85761011f565b806323b872dd116100e757806323b872dd1461021b5780632f9a4beb146102445780633ccfd60b1461026f57806342842e0e146102865780636352211e146102af5761011f565b806301ffc9a71461012457806306fdde0314610161578063081812fc1461018c578063095ea7b3146101c95780631fe543e3146101f2575b600080fd5b34801561013057600080fd5b5061014b60048036038101906101469190611f47565b6104d1565b6040516101589190611f8f565b60405180910390f35b34801561016d57600080fd5b506101766105b3565b604051610183919061203a565b60405180910390f35b34801561019857600080fd5b506101b360048036038101906101ae9190612092565b610645565b6040516101c09190612100565b60405180910390f35b3480156101d557600080fd5b506101f060048036038101906101eb9190612147565b61068b565b005b3480156101fe57600080fd5b50610219600480360381019061021491906122cf565b6107a2565b005b34801561022757600080fd5b50610242600480360381019061023d919061232b565b610862565b005b34801561025057600080fd5b506102596108c2565b604051610266919061238d565b60405180910390f35b34801561027b57600080fd5b506102846108cc565b005b34801561029257600080fd5b506102ad60048036038101906102a8919061232b565b610a1d565b005b3480156102bb57600080fd5b506102d660048036038101906102d19190612092565b610a3d565b6040516102e39190612100565b60405180910390f35b3480156102f857600080fd5b50610313600480360381019061030e91906123a8565b610aee565b604051610320919061238d565b60405180910390f35b34801561033557600080fd5b5061033e610ba5565b60405161034b919061238d565b60405180910390f35b34801561036057600080fd5b50610369610baf565b604051610376919061203a565b60405180910390f35b34801561038b57600080fd5b506103a660048036038101906103a19190612401565b610c41565b005b3480156103b457600080fd5b506103bd610c57565b6040516103ca9190612541565b60405180910390f35b3480156103df57600080fd5b506103fa60048036038101906103f59190612618565b610d24565b005b610404610d86565b604051610411919061238d565b60405180910390f35b34801561042657600080fd5b50610441600480360381019061043c9190612092565b610f5a565b60405161044e9190612712565b60405180910390f35b34801561046357600080fd5b5061047e60048036038101906104799190612092565b61104e565b60405161048b919061203a565b60405180910390f35b3480156104a057600080fd5b506104bb60048036038101906104b6919061272d565b6110f3565b6040516104c89190611f8f565b60405180910390f35b60007f80ac58cd000000000000000000000000000000000000000000000000000000007bffffffffffffffffffffffffffffffffffffffffffffffffffffffff1916827bffffffffffffffffffffffffffffffffffffffffffffffffffffffff1916148061059c57507f5b5e139f000000000000000000000000000000000000000000000000000000007bffffffffffffffffffffffffffffffffffffffffffffffffffffffff1916827bffffffffffffffffffffffffffffffffffffffffffffffffffffffff1916145b806105ac57506105ab82611187565b5b9050919050565b6060600080546105c29061279c565b80601f01602080910402602001604051908101604052809291908181526020018280546105ee9061279c565b801561063b5780601f106106105761010080835404028352916020019161063b565b820191906000526020600020905b81548152906001019060200180831161061e57829003601f168201915b5050505050905090565b6000610650826111f1565b6004600083815260200190815260200160002060009054906101000a900473ffffffffffffffffffffffffffffffffffffffff169050919050565b600061069682610a3d565b90508073ffffffffffffffffffffffffffffffffffffffff168373ffffffffffffffffffffffffffffffffffffffff1603610706576040517f08c379a00000000000000000000000000000000000000000000000000000000081526004016106fd9061283f565b60405180910390fd5b8073ffffffffffffffffffffffffffffffffffffffff1661072561123c565b73ffffffffffffffffffffffffffffffffffffffff16148061075457506107538161074e61123c565b6110f3565b5b610793576040517f08c379a000000000000000000000000000000000000000000000000000000000815260040161078a906128d1565b60405180910390fd5b61079d8383611244565b505050565b7f000000000000000000000000000000000000000000000000000000000000000073ffffffffffffffffffffffffffffffffffffffff163373ffffffffffffffffffffffffffffffffffffffff161461085457337f00000000000000000000000000000000000000000000000000000000000000006040517f1cf993f400000000000000000000000000000000000000000000000000000000815260040161084b9291906128f1565b60405180910390fd5b61085e82826112fd565b5050565b61087361086d61123c565b826114bd565b6108b2576040517f08c379a00000000000000000000000000000000000000000000000000000000081526004016108a99061298c565b60405180910390fd5b6108bd838383611552565b505050565b60006101f4905090565b3373ffffffffffffffffffffffffffffffffffffffff167f000000000000000000000000000000000000000000000000000000000000000073ffffffffffffffffffffffffffffffffffffffff1614610951576040517f651ebbca00000000000000000000000000000000000000000000000000000000815260040160405180910390fd5b600047905060007f000000000000000000000000000000000000000000000000000000000000000073ffffffffffffffffffffffffffffffffffffffff168260405161099c906129dd565b60006040518083038185875af1925050503d80600081146109d9576040519150601f19603f3d011682016040523d82523d6000602084013e6109de565b606091505b5050905080610a19576040517f89b231fd00000000000000000000000000000000000000000000000000000000815260040160405180910390fd5b5050565b610a3883838360405180602001604052806000815250610d24565b505050565b6000806002600084815260200190815260200160002060009054906101000a900473ffffffffffffffffffffffffffffffffffffffff169050600073ffffffffffffffffffffffffffffffffffffffff168173ffffffffffffffffffffffffffffffffffffffff1603610ae5576040517f08c379a0000000000000000000000000000000000000000000000000000000008152600401610adc90612a3e565b60405180910390fd5b80915050919050565b60008073ffffffffffffffffffffffffffffffffffffffff168273ffffffffffffffffffffffffffffffffffffffff1603610b5e576040517f08c379a0000000000000000000000000000000000000000000000000000000008152600401610b5590612ad0565b60405180910390fd5b600360008373ffffffffffffffffffffffffffffffffffffffff1673ffffffffffffffffffffffffffffffffffffffff168152602001908152602001600020549050919050565b6000600e54905090565b606060018054610bbe9061279c565b80601f0160208091040260200160405190810160405280929190818152602001828054610bea9061279c565b8015610c375780601f10610c0c57610100808354040283529160200191610c37565b820191906000526020600020905b815481529060010190602001808311610c1a57829003601f168201915b5050505050905090565b610c53610c4c61123c565b83836117b8565b5050565b610c5f611e92565b6009600480602002604051908101604052809291906000905b82821015610d1b578382018054610c8e9061279c565b80601f0160208091040260200160405190810160405280929190818152602001828054610cba9061279c565b8015610d075780601f10610cdc57610100808354040283529160200191610d07565b820191906000526020600020905b815481529060010190602001808311610cea57829003601f168201915b505050505081526020019060010190610c78565b50505050905090565b610d35610d2f61123c565b836114bd565b610d74576040517f08c379a0000000000000000000000000000000000000000000000000000000008152600401610d6b9061298c565b60405180910390fd5b610d8084848484611924565b50505050565b6000600e54341015610dc4576040517f5c7eb28100000000000000000000000000000000000000000000000000000000815260040160405180910390fd5b7f000000000000000000000000000000000000000000000000000000000000000073ffffffffffffffffffffffffffffffffffffffff16635d3b1d307f00000000000000000000000000000000000000000000000000000000000000007f000000000000000000000000000000000000000000000000000000000000000060037f000000000000000000000000000000000000000000000000000000000000000060016040518663ffffffff1660e01b8152600401610e87959493929190612bd9565b6020604051808303816000875af1158015610ea6573d6000803e3d6000fd5b505050506040513d601f19601f82011682018060405250810190610eca9190612c41565b9050336007600083815260200190815260200160002060006101000a81548173ffffffffffffffffffffffffffffffffffffffff021916908373ffffffffffffffffffffffffffffffffffffffff1602179055507f4e1c2f1eae56e29ec039a2b882eec626e6c420ed5a5b93a203c8b8b695e911b18133604051610f4f929190612c6e565b60405180910390a190565b600080610f65611980565b90506000805b600481101561101657828160048110610f8757610f86612c97565b5b60200201518510158015610fbc575081838260048110610faa57610fa9612c97565b5b6020020151610fb99190612cf5565b85105b15610fde57806003811115610fd457610fd361269b565b5b9350505050611049565b828160048110610ff157610ff0612c97565b5b6020020151826110019190612cf5565b9150808061100e90612d29565b915050610f6b565b506040517ff5d6eacd00000000000000000000000000000000000000000000000000000000815260040160405180910390fd5b919050565b6060600d6000838152602001908152602001600020805461106e9061279c565b80601f016020809104026020016040519081016040528092919081815260200182805461109a9061279c565b80156110e75780601f106110bc576101008083540402835291602001916110e7565b820191906000526020600020905b8154815290600101906020018083116110ca57829003601f168201915b50505050509050919050565b6000600560008473ffffffffffffffffffffffffffffffffffffffff1673ffffffffffffffffffffffffffffffffffffffff16815260200190815260200160002060008373ffffffffffffffffffffffffffffffffffffffff1673ffffffffffffffffffffffffffffffffffffffff16815260200190815260200160002060009054906101000a900460ff16905092915050565b60007f01ffc9a7000000000000000000000000000000000000000000000000000000007bffffffffffffffffffffffffffffffffffffffffffffffffffffffff1916827bffffffffffffffffffffffffffffffffffffffffffffffffffffffff1916149050919050565b6111fa816119b3565b611239576040517f08c379a000000000000000000000000000000000000000000000000000000000815260040161123090612a3e565b60405180910390fd5b50565b600033905090565b816004600083815260200190815260200160002060006101000a81548173ffffffffffffffffffffffffffffffffffffffff021916908373ffffffffffffffffffffffffffffffffffffffff160217905550808273ffffffffffffffffffffffffffffffffffffffff166112b783610a3d565b73ffffffffffffffffffffffffffffffffffffffff167f8c5be1e5ebec7d5bd14f71427d1e84f3dd0314c0f7b2291e5b200ac8c7c3b92560405160405180910390a45050565b60006007600084815260200190815260200160002060009054906101000a900473ffffffffffffffffffffffffffffffffffffffff1690506000600854905060006101f48460008151811061135557611354612c97565b5b60200260200101516113679190612da0565b9050600061137482610f5a565b90506000600982600381111561138d5761138c61269b565b5b6004811061139e5761139d612c97565b5b0180546113aa9061279c565b80601f01602080910402602001604051908101604052809291908181526020018280546113d69061279c565b80156114235780601f106113f857610100808354040283529160200191611423565b820191906000526020600020905b81548152906001019060200180831161140657829003601f168201915b505050505090506114348585611a1f565b61143e8482611a3d565b80600d6000868152602001908152602001600020908161145e9190612f73565b506008600081548092919061147290612d29565b91905055507f455065e4b8bac54341eb6231d2245b3ae7fe1a0842a4a7e6a81926556024f097878584886040516114ac9493929190613045565b60405180910390a150505050505050565b6000806114c983610a3d565b90508073ffffffffffffffffffffffffffffffffffffffff168473ffffffffffffffffffffffffffffffffffffffff16148061150b575061150a81856110f3565b5b8061154957508373ffffffffffffffffffffffffffffffffffffffff1661153184610645565b73ffffffffffffffffffffffffffffffffffffffff16145b91505092915050565b8273ffffffffffffffffffffffffffffffffffffffff1661157282610a3d565b73ffffffffffffffffffffffffffffffffffffffff16146115c8576040517f08c379a00000000000000000000000000000000000000000000000000000000081526004016115bf906130fc565b60405180910390fd5b600073ffffffffffffffffffffffffffffffffffffffff168273ffffffffffffffffffffffffffffffffffffffff1603611637576040517f08c379a000000000000000000000000000000000000000000000000000000000815260040161162e9061318e565b60405180910390fd5b611642838383611aaa565b61164d600082611244565b6001600360008573ffffffffffffffffffffffffffffffffffffffff1673ffffffffffffffffffffffffffffffffffffffff168152602001908152602001600020600082825461169d91906131ae565b925050819055506001600360008473ffffffffffffffffffffffffffffffffffffffff1673ffffffffffffffffffffffffffffffffffffffff16815260200190815260200160002060008282546116f49190612cf5565b92505081905550816002600083815260200190815260200160002060006101000a81548173ffffffffffffffffffffffffffffffffffffffff021916908373ffffffffffffffffffffffffffffffffffffffff160217905550808273ffffffffffffffffffffffffffffffffffffffff168473ffffffffffffffffffffffffffffffffffffffff167fddf252ad1be2c89b69c2b068fc378daa952ba7f163c4a11628f55a4df523b3ef60405160405180910390a46117b3838383611aaf565b505050565b8173ffffffffffffffffffffffffffffffffffffffff168373ffffffffffffffffffffffffffffffffffffffff1603611826576040517f08c379a000000000000000000000000000000000000000000000000000000000815260040161181d9061322e565b60405180910390fd5b80600560008573ffffffffffffffffffffffffffffffffffffffff1673ffffffffffffffffffffffffffffffffffffffff16815260200190815260200160002060008473ffffffffffffffffffffffffffffffffffffffff1673ffffffffffffffffffffffffffffffffffffffff16815260200190815260200160002060006101000a81548160ff0219169083151502179055508173ffffffffffffffffffffffffffffffffffffffff168373ffffffffffffffffffffffffffffffffffffffff167f17307eab39ab6107e8899845ad3d59bd9653f200f220920489ca2b5937696c31836040516119179190611f8f565b60405180910390a3505050565b61192f848484611552565b61193b84848484611ab4565b61197a576040517f08c379a0000000000000000000000000000000000000000000000000000000008152600401611971906132c0565b60405180910390fd5b50505050565b611988611eb9565b6040518060800160405280600a8152602001601e8152602001607881526020016101f4815250905090565b60008073ffffffffffffffffffffffffffffffffffffffff166002600084815260200190815260200160002060009054906101000a900473ffffffffffffffffffffffffffffffffffffffff1673ffffffffffffffffffffffffffffffffffffffff1614159050919050565b611a39828260405180602001604052806000815250611c3b565b5050565b611a46826119b3565b611a85576040517f08c379a0000000000000000000000000000000000000000000000000000000008152600401611a7c90613352565b60405180910390fd5b80600660008481526020019081526020016000209081611aa59190612f73565b505050565b505050565b505050565b6000611ad58473ffffffffffffffffffffffffffffffffffffffff16611c96565b15611c2e578373ffffffffffffffffffffffffffffffffffffffff1663150b7a02611afe61123c565b8786866040518563ffffffff1660e01b8152600401611b2094939291906133c7565b6020604051808303816000875af1925050508015611b5c57506040513d601f19601f82011682018060405250810190611b599190613428565b60015b611bde573d8060008114611b8c576040519150601f19603f3d011682016040523d82523d6000602084013e611b91565b606091505b506000815103611bd6576040517f08c379a0000000000000000000000000000000000000000000000000000000008152600401611bcd906132c0565b60405180910390fd5b805181602001fd5b63150b7a0260e01b7bffffffffffffffffffffffffffffffffffffffffffffffffffffffff1916817bffffffffffffffffffffffffffffffffffffffffffffffffffffffff191614915050611c33565b600190505b949350505050565b611c458383611cb9565b611c526000848484611ab4565b611c91576040517f08c379a0000000000000000000000000000000000000000000000000000000008152600401611c88906132c0565b60405180910390fd5b505050565b6000808273ffffffffffffffffffffffffffffffffffffffff163b119050919050565b600073ffffffffffffffffffffffffffffffffffffffff168273ffffffffffffffffffffffffffffffffffffffff1603611d28576040517f08c379a0000000000000000000000000000000000000000000000000000000008152600401611d1f906134a1565b60405180910390fd5b611d31816119b3565b15611d71576040517f08c379a0000000000000000000000000000000000000000000000000000000008152600401611d689061350d565b60405180910390fd5b611d7d60008383611aaa565b6001600360008473ffffffffffffffffffffffffffffffffffffffff1673ffffffffffffffffffffffffffffffffffffffff1681526020019081526020016000206000828254611dcd9190612cf5565b92505081905550816002600083815260200190815260200160002060006101000a81548173ffffffffffffffffffffffffffffffffffffffff021916908373ffffffffffffffffffffffffffffffffffffffff160217905550808273ffffffffffffffffffffffffffffffffffffffff16600073ffffffffffffffffffffffffffffffffffffffff167fddf252ad1be2c89b69c2b068fc378daa952ba7f163c4a11628f55a4df523b3ef60405160405180910390a4611e8e60008383611aaf565b5050565b60405180608001604052806004905b6060815260200190600190039081611ea15790505090565b6040518060800160405280600490602082028036833780820191505090505090565b6000604051905090565b600080fd5b600080fd5b60007fffffffff0000000000000000000000000000000000000000000000000000000082169050919050565b611f2481611eef565b8114611f2f57600080fd5b50565b600081359050611f4181611f1b565b92915050565b600060208284031215611f5d57611f5c611ee5565b5b6000611f6b84828501611f32565b91505092915050565b60008115159050919050565b611f8981611f74565b82525050565b6000602082019050611fa46000830184611f80565b92915050565b600081519050919050565b600082825260208201905092915050565b60005b83811015611fe4578082015181840152602081019050611fc9565b60008484015250505050565b6000601f19601f8301169050919050565b600061200c82611faa565b6120168185611fb5565b9350612026818560208601611fc6565b61202f81611ff0565b840191505092915050565b600060208201905081810360008301526120548184612001565b905092915050565b6000819050919050565b61206f8161205c565b811461207a57600080fd5b50565b60008135905061208c81612066565b92915050565b6000602082840312156120a8576120a7611ee5565b5b60006120b68482850161207d565b91505092915050565b600073ffffffffffffffffffffffffffffffffffffffff82169050919050565b60006120ea826120bf565b9050919050565b6120fa816120df565b82525050565b600060208201905061211560008301846120f1565b92915050565b612124816120df565b811461212f57600080fd5b50565b6000813590506121418161211b565b92915050565b6000806040838503121561215e5761215d611ee5565b5b600061216c85828601612132565b925050602061217d8582860161207d565b9150509250929050565b600080fd5b7f4e487b7100000000000000000000000000000000000000000000000000000000600052604160045260246000fd5b6121c482611ff0565b810181811067ffffffffffffffff821117156121e3576121e261218c565b5b80604052505050565b60006121f6611edb565b905061220282826121bb565b919050565b600067ffffffffffffffff8211156122225761222161218c565b5b602082029050602081019050919050565b600080fd5b600061224b61224684612207565b6121ec565b9050808382526020820190506020840283018581111561226e5761226d612233565b5b835b818110156122975780612283888261207d565b845260208401935050602081019050612270565b5050509392505050565b600082601f8301126122b6576122b5612187565b5b81356122c6848260208601612238565b91505092915050565b600080604083850312156122e6576122e5611ee5565b5b60006122f48582860161207d565b925050602083013567ffffffffffffffff81111561231557612314611eea565b5b612321858286016122a1565b9150509250929050565b60008060006060848603121561234457612343611ee5565b5b600061235286828701612132565b935050602061236386828701612132565b92505060406123748682870161207d565b9150509250925092565b6123878161205c565b82525050565b60006020820190506123a2600083018461237e565b92915050565b6000602082840312156123be576123bd611ee5565b5b60006123cc84828501612132565b91505092915050565b6123de81611f74565b81146123e957600080fd5b50565b6000813590506123fb816123d5565b92915050565b6000806040838503121561241857612417611ee5565b5b600061242685828601612132565b9250506020612437858286016123ec565b9150509250929050565b600060049050919050565b600081905092915050565b6000819050919050565b600082825260208201905092915050565b600061247d82611faa565b6124878185612461565b9350612497818560208601611fc6565b6124a081611ff0565b840191505092915050565b60006124b78383612472565b905092915050565b6000602082019050919050565b60006124d782612441565b6124e1818561244c565b9350836020820285016124f385612457565b8060005b8581101561252f578484038952815161251085826124ab565b945061251b836124bf565b925060208a019950506001810190506124f7565b50829750879550505050505092915050565b6000602082019050818103600083015261255b81846124cc565b905092915050565b600080fd5b600067ffffffffffffffff8211156125835761258261218c565b5b61258c82611ff0565b9050602081019050919050565b82818337600083830152505050565b60006125bb6125b684612568565b6121ec565b9050828152602081018484840111156125d7576125d6612563565b5b6125e2848285612599565b509392505050565b600082601f8301126125ff576125fe612187565b5b813561260f8482602086016125a8565b91505092915050565b6000806000806080858703121561263257612631611ee5565b5b600061264087828801612132565b945050602061265187828801612132565b93505060406126628782880161207d565b925050606085013567ffffffffffffffff81111561268357612682611eea565b5b61268f878288016125ea565b91505092959194509250565b7f4e487b7100000000000000000000000000000000000000000000000000000000600052602160045260246000fd5b600481106126db576126da61269b565b5b50565b60008190506126ec826126ca565b919050565b60006126fc826126de565b9050919050565b61270c816126f1565b82525050565b60006020820190506127276000830184612703565b92915050565b6000806040838503121561274457612743611ee5565b5b600061275285828601612132565b925050602061276385828601612132565b9150509250929050565b7f4e487b7100000000000000000000000000000000000000000000000000000000600052602260045260246000fd5b600060028204905060018216806127b457607f821691505b6020821081036127c7576127c661276d565b5b50919050565b7f4552433732313a20617070726f76616c20746f2063757272656e74206f776e6560008201527f7200000000000000000000000000000000000000000000000000000000000000602082015250565b6000612829602183611fb5565b9150612834826127cd565b604082019050919050565b600060208201905081810360008301526128588161281c565b9050919050565b7f4552433732313a20617070726f76652063616c6c6572206973206e6f7420746f60008201527f6b656e206f776e6572206e6f7220617070726f76656420666f7220616c6c0000602082015250565b60006128bb603e83611fb5565b91506128c68261285f565b604082019050919050565b600060208201905081810360008301526128ea816128ae565b9050919050565b600060408201905061290660008301856120f1565b61291360208301846120f1565b9392505050565b7f4552433732313a2063616c6c6572206973206e6f7420746f6b656e206f776e6560008201527f72206e6f7220617070726f766564000000000000000000000000000000000000602082015250565b6000612976602e83611fb5565b91506129818261291a565b604082019050919050565b600060208201905081810360008301526129a581612969565b9050919050565b600081905092915050565b50565b60006129c76000836129ac565b91506129d2826129b7565b600082019050919050565b60006129e8826129ba565b9150819050919050565b7f4552433732313a20696e76616c696420746f6b656e2049440000000000000000600082015250565b6000612a28601883611fb5565b9150612a33826129f2565b602082019050919050565b60006020820190508181036000830152612a5781612a1b565b9050919050565b7f4552433732313a2061646472657373207a65726f206973206e6f74206120766160008201527f6c6964206f776e65720000000000000000000000000000000000000000000000602082015250565b6000612aba602983611fb5565b9150612ac582612a5e565b604082019050919050565b60006020820190508181036000830152612ae981612aad565b9050919050565b6000819050919050565b612b0381612af0565b82525050565b600067ffffffffffffffff82169050919050565b612b2681612b09565b82525050565b6000819050919050565b600061ffff82169050919050565b6000819050919050565b6000612b69612b64612b5f84612b2c565b612b44565b612b36565b9050919050565b612b7981612b4e565b82525050565b600063ffffffff82169050919050565b612b9881612b7f565b82525050565b6000819050919050565b6000612bc3612bbe612bb984612b9e565b612b44565b612b7f565b9050919050565b612bd381612ba8565b82525050565b600060a082019050612bee6000830188612afa565b612bfb6020830187612b1d565b612c086040830186612b70565b612c156060830185612b8f565b612c226080830184612bca565b9695505050505050565b600081519050612c3b81612066565b92915050565b600060208284031215612c5757612c56611ee5565b5b6000612c6584828501612c2c565b91505092915050565b6000604082019050612c83600083018561237e565b612c9060208301846120f1565b9392505050565b7f4e487b7100000000000000000000000000000000000000000000000000000000600052603260045260246000fd5b7f4e487b7100000000000000000000000000000000000000000000000000000000600052601160045260246000fd5b6000612d008261205c565b9150612d0b8361205c565b9250828201905080821115612d2357612d22612cc6565b5b92915050565b6000612d348261205c565b91507fffffffffffffffffffffffffffffffffffffffffffffffffffffffffffffffff8203612d6657612d65612cc6565b5b600182019050919050565b7f4e487b7100000000000000000000000000000000000000000000000000000000600052601260045260246000fd5b6000612dab8261205c565b9150612db68361205c565b925082612dc657612dc5612d71565b5b828206905092915050565b60008190508160005260206000209050919050565b60006020601f8301049050919050565b600082821b905092915050565b600060088302612e337fffffffffffffffffffffffffffffffffffffffffffffffffffffffffffffffff82612df6565b612e3d8683612df6565b95508019841693508086168417925050509392505050565b6000612e70612e6b612e668461205c565b612b44565b61205c565b9050919050565b6000819050919050565b612e8a83612e55565b612e9e612e9682612e77565b848454612e03565b825550505050565b600090565b612eb3612ea6565b612ebe818484612e81565b505050565b5b81811015612ee257612ed7600082612eab565b600181019050612ec4565b5050565b601f821115612f2757612ef881612dd1565b612f0184612de6565b81016020851015612f10578190505b612f24612f1c85612de6565b830182612ec3565b50505b505050565b600082821c905092915050565b6000612f4a60001984600802612f2c565b1980831691505092915050565b6000612f638383612f39565b9150826002028217905092915050565b612f7c82611faa565b67ffffffffffffffff811115612f9557612f9461218c565b5b612f9f825461279c565b612faa828285612ee6565b600060209050601f831160018114612fdd5760008415612fcb578287015190505b612fd58582612f57565b86555061303d565b601f198416612feb86612dd1565b60005b8281101561301357848901518255600182019150602085019450602081019050612fee565b86831015613030578489015161302c601f891682612f39565b8355505b6001600288020188555050505b505050505050565b600060808201905061305a600083018761237e565b613067602083018661237e565b6130746040830185612703565b61308160608301846120f1565b95945050505050565b7f4552433732313a207472616e736665722066726f6d20696e636f72726563742060008201527f6f776e6572000000000000000000000000000000000000000000000000000000602082015250565b60006130e6602583611fb5565b91506130f18261308a565b604082019050919050565b60006020820190508181036000830152613115816130d9565b9050919050565b7f4552433732313a207472616e7366657220746f20746865207a65726f2061646460008201527f7265737300000000000000000000000000000000000000000000000000000000602082015250565b6000613178602483611fb5565b91506131838261311c565b604082019050919050565b600060208201905081810360008301526131a78161316b565b9050919050565b60006131b98261205c565b91506131c48361205c565b92508282039050818111156131dc576131db612cc6565b5b92915050565b7f4552433732313a20617070726f766520746f2063616c6c657200000000000000600082015250565b6000613218601983611fb5565b9150613223826131e2565b602082019050919050565b600060208201905081810360008301526132478161320b565b9050919050565b7f4552433732313a207472616e7366657220746f206e6f6e20455243373231526560008201527f63656976657220696d706c656d656e7465720000000000000000000000000000602082015250565b60006132aa603283611fb5565b91506132b58261324e565b604082019050919050565b600060208201905081810360008301526132d98161329d565b9050919050565b7f45524337323155524953746f726167653a2055524920736574206f66206e6f6e60008201527f6578697374656e7420746f6b656e000000000000000000000000000000000000602082015250565b600061333c602e83611fb5565b9150613347826132e0565b604082019050919050565b6000602082019050818103600083015261336b8161332f565b9050919050565b600081519050919050565b600082825260208201905092915050565b600061339982613372565b6133a3818561337d565b93506133b3818560208601611fc6565b6133bc81611ff0565b840191505092915050565b60006080820190506133dc60008301876120f1565b6133e960208301866120f1565b6133f6604083018561237e565b8181036060830152613408818461338e565b905095945050505050565b60008151905061342281611f1b565b92915050565b60006020828403121561343e5761343d611ee5565b5b600061344c84828501613413565b91505092915050565b7f4552433732313a206d696e7420746f20746865207a65726f2061646472657373600082015250565b600061348b602083611fb5565b915061349682613455565b602082019050919050565b600060208201905081810360008301526134ba8161347e565b9050919050565b7f4552433732313a20746f6b656e20616c7265616479206d696e74656400000000600082015250565b60006134f7601c83611fb5565b9150613502826134c1565b602082019050919050565b60006020820190508181036000830152613526816134ea565b905091905056fea26469706673582212203e62c9359ca2807f6f3e0546b9b0393fce7329eba5ba759359881e523c621b1964736f6c63430008100033",
  "devdoc": {
    "kind": "dev",
    "methods": {
      "approve(address,uint256)": {
        "details": "See {IERC721-approve}."
      },
      "balanceOf(address)": {
        "details": "See {IERC721-balanceOf}."
      },
      "getApproved(uint256)": {
        "details": "See {IERC721-getApproved}."
      },
      "isApprovedForAll(address,address)": {
        "details": "See {IERC721-isApprovedForAll}."
      },
      "name()": {
        "details": "See {IERC721Metadata-name}."
      },
      "ownerOf(uint256)": {
        "details": "See {IERC721-ownerOf}."
      },
      "safeTransferFrom(address,address,uint256)": {
        "details": "See {IERC721-safeTransferFrom}."
      },
      "safeTransferFrom(address,address,uint256,bytes)": {
        "details": "See {IERC721-safeTransferFrom}."
      },
      "setApprovalForAll(address,bool)": {
        "details": "See {IERC721-setApprovalForAll}."
      },
      "supportsInterface(bytes4)": {
        "details": "See {IERC165-supportsInterface}."
      },
      "symbol()": {
        "details": "See {IERC721Metadata-symbol}."
      },
      "tokenURI(uint256)": {
        "details": "See {IERC721Metadata-tokenURI}."
      },
      "transferFrom(address,address,uint256)": {
        "details": "See {IERC721-transferFrom}."
      }
    },
    "version": 1
  },
  "userdoc": {
    "kind": "user",
    "methods": {},
    "version": 1
  },
  "storageLayout": {
    "storage": [
      {
        "astId": 172,
        "contract": "contracts/RandomApeYachtClub.sol:RandomApeYachtClub",
        "label": "_name",
        "offset": 0,
        "slot": "0",
        "type": "t_string_storage"
      },
      {
        "astId": 174,
        "contract": "contracts/RandomApeYachtClub.sol:RandomApeYachtClub",
        "label": "_symbol",
        "offset": 0,
        "slot": "1",
        "type": "t_string_storage"
      },
      {
        "astId": 178,
        "contract": "contracts/RandomApeYachtClub.sol:RandomApeYachtClub",
        "label": "_owners",
        "offset": 0,
        "slot": "2",
        "type": "t_mapping(t_uint256,t_address)"
      },
      {
        "astId": 182,
        "contract": "contracts/RandomApeYachtClub.sol:RandomApeYachtClub",
        "label": "_balances",
        "offset": 0,
        "slot": "3",
        "type": "t_mapping(t_address,t_uint256)"
      },
      {
        "astId": 186,
        "contract": "contracts/RandomApeYachtClub.sol:RandomApeYachtClub",
        "label": "_tokenApprovals",
        "offset": 0,
        "slot": "4",
        "type": "t_mapping(t_uint256,t_address)"
      },
      {
        "astId": 192,
        "contract": "contracts/RandomApeYachtClub.sol:RandomApeYachtClub",
        "label": "_operatorApprovals",
        "offset": 0,
        "slot": "5",
        "type": "t_mapping(t_address,t_mapping(t_address,t_bool))"
      },
      {
        "astId": 1160,
        "contract": "contracts/RandomApeYachtClub.sol:RandomApeYachtClub",
        "label": "_tokenURIs",
        "offset": 0,
        "slot": "6",
        "type": "t_mapping(t_uint256,t_string_storage)"
      },
      {
        "astId": 1915,
        "contract": "contracts/RandomApeYachtClub.sol:RandomApeYachtClub",
        "label": "s_requestIdToMinter",
        "offset": 0,
        "slot": "7",
        "type": "t_mapping(t_uint256,t_address)"
      },
      {
        "astId": 1920,
        "contract": "contracts/RandomApeYachtClub.sol:RandomApeYachtClub",
        "label": "s_tokenId",
        "offset": 0,
        "slot": "8",
        "type": "t_uint256"
      },
      {
        "astId": 1924,
        "contract": "contracts/RandomApeYachtClub.sol:RandomApeYachtClub",
        "label": "s_tokenURIs",
        "offset": 0,
        "slot": "9",
        "type": "t_array(t_string_storage)4_storage"
      },
      {
        "astId": 1928,
        "contract": "contracts/RandomApeYachtClub.sol:RandomApeYachtClub",
        "label": "tokenIdToTokenURI",
        "offset": 0,
        "slot": "13",
        "type": "t_mapping(t_uint256,t_string_storage)"
      },
      {
        "astId": 1930,
        "contract": "contracts/RandomApeYachtClub.sol:RandomApeYachtClub",
        "label": "i_mintFee",
        "offset": 0,
        "slot": "14",
        "type": "t_uint256"
      }
    ],
    "types": {
      "t_address": {
        "encoding": "inplace",
        "label": "address",
        "numberOfBytes": "20"
      },
      "t_array(t_string_storage)4_storage": {
        "base": "t_string_storage",
        "encoding": "inplace",
        "label": "string[4]",
        "numberOfBytes": "128"
      },
      "t_bool": {
        "encoding": "inplace",
        "label": "bool",
        "numberOfBytes": "1"
      },
      "t_mapping(t_address,t_bool)": {
        "encoding": "mapping",
        "key": "t_address",
        "label": "mapping(address => bool)",
        "numberOfBytes": "32",
        "value": "t_bool"
      },
      "t_mapping(t_address,t_mapping(t_address,t_bool))": {
        "encoding": "mapping",
        "key": "t_address",
        "label": "mapping(address => mapping(address => bool))",
        "numberOfBytes": "32",
        "value": "t_mapping(t_address,t_bool)"
      },
      "t_mapping(t_address,t_uint256)": {
        "encoding": "mapping",
        "key": "t_address",
        "label": "mapping(address => uint256)",
        "numberOfBytes": "32",
        "value": "t_uint256"
      },
      "t_mapping(t_uint256,t_address)": {
        "encoding": "mapping",
        "key": "t_uint256",
        "label": "mapping(uint256 => address)",
        "numberOfBytes": "32",
        "value": "t_address"
      },
      "t_mapping(t_uint256,t_string_storage)": {
        "encoding": "mapping",
        "key": "t_uint256",
        "label": "mapping(uint256 => string)",
        "numberOfBytes": "32",
        "value": "t_string_storage"
      },
      "t_string_storage": {
        "encoding": "bytes",
        "label": "string",
        "numberOfBytes": "32"
      },
      "t_uint256": {
        "encoding": "inplace",
        "label": "uint256",
        "numberOfBytes": "32"
      }
    }
  }
}